:100000000C94CF070C94EC070C94EC070C94EC07C1
:100010000C94EC070C94EC070C94EC070C94EC0794
:100020000C94EC070C94EC070C94EC070C94511214
:100030000C94EC070C94EC070C94EC070C94EC0774
:100040000C94EC070C94EC070C94EC070C94EC0764
:100050000C94EC070C94EC070C94EC070C94EC0754
:100060000C94EC070C94EC077F2020207F7F2084E9
:100070008A7F7F2081847F7F8D88857F7F858A8DA1
:100080007F7F8D8F8B7FBFBFBFBF7FCAC8C8C8CBE4
:10009000C9BF2020C9C920CAC8CDC920C920BFC92D
:1000A00020CCC8CBC9BF2020C6CCC8C8C1072020DF
:1000B0002020202020202020E5E5E5E5E5E5E6E21A
:1000C000E1E5E5E5E5E5E5202020202020202020D1
:1000D00020989494949C9020202090902018209018
:1000E000901B031A9090201920909020202090A01F
:1000F000949494A450726F66696C650A44656D6F40
:100100002020200A4F7074696F6E730A4372656411
:10011000697473005573652074686520206A6F796F
:1001200070616420746F666974206173206D7563FB
:1001300068206F662074686572656374616E676CB1
:100140006520206F6E202074686573637265656E2C
:1001500020617320706F737369626C6500202020CA
:10016000202020202020202020202020202020208F
:100170002048414E414B41492053545544494F205A
:100180002020202020202020323031332020202029
:10019000202020202020202020202020202020205F
:1001A000202020202000205449544C450A0D0A0AE2
:1001B000202020204120736C69646573686F770A82
:1001C0000D202020207769746820612073696D708C
:1001D0006C65204156520A0D0A0A2020202020205A
:1001E0002020202044616D69656E2047726175781A
:1001F0000A0D2020202020202020202067697468FC
:1002000075622E636F6D2F6467726175780A0D0ACF
:100210003E0A0D0020456E64206F66200A0D0A20FC
:10022000736C69646573686F770A0D0A202E2E2E31
:100230002E2E2E0A0D0A3E0020504C414E2020202A
:1002400020202020202020202020202020202020AE
:1002500020202020202020200A0D5F5F5F5F5F5F4D
:100260005F5F5F5F5F5F5F5F5F5F5F5F5F5F5F5F9E
:100270005F5F5F5F5F5F5F5F5F5F0A0D202D2046FE
:100280006972737420506172742020202020202015
:100290002020202020202020202020200A0D202D7A
:1002A000205468656E20202020202020202020203F
:1002B00020202020202020202020202020200A0D67
:1002C000202D2041667465722020202020202020CF
:1002D000202020202020202020202020202020201E
:1002E0000A0D202D20436F6E636C7573696F6E2E3F
:1002F0002E2E2020202020202020202020202020E2
:1003000020200A0D5F5F5F5F5F5F5F5F5F5F5F5F22
:100310005F5F5F5F5F5F5F5F5F5F5F5F5F5F5F5FED
:100320005F5F5F5F0A0D2044616D69656E204772F3
:1003300061757820202020202020202020202020CF
:100340002020202020310A0D00204C4F52454D2006
:10035000495053554D2020202020202020202020AF
:100360002020202020202020200A0D5F5F5F5F5F7B
:100370005F5F5F5F5F5F5F5F5F5F5F5F5F5F5F5F8D
:100380005F5F5F5F5F5F5F5F5F5F5F0A0D0A0A200D
:100390002D20546578742068657265202020202007
:1003A0002020202020202020202020202020200A63
:1003B0000D0A0A202D205465787420686572652026
:1003C000616C736F202020202020202020202020FE
:1003D0002020200A0D0A5F5F5F5F5F5F5F5F5F5FE6
:1003E0005F5F5F5F5F5F5F5F5F5F5F5F5F5F5F5F1D
:1003F0005F5F5F5F5F5F0A0D2044616D69656E201E
:100400004772617578202020202020202020202085
:1004100020202020202020200A0D00415652204379
:100420006F6D707574657220314B0A0D0A41546D01
:10043000656761203136380A0D0A42415349430A43
:100440000D0A3E003130205052494E542022415670
:10045000522072756C65732120223B000A0D3E000C
:10046000323020474F544F203130000A0D3E0052A9
:10047000554E000A0D004156522072756C6573216D
:1004800020000A0D457363617065206174206C69FA
:100490006E652031300A0D3E00434841494E20220E
:1004A00044454D4F22007476546578743A20422FAB
:1004B000572074657874206F6E20612050414C2065
:1004C00054565F5F5F5F5F5F5F5F5F5F5F5F5F5F50
:1004D0005F5F5F5F5F5F5F5F5F5F5F5F5F5F0A548C
:1004E000686520646973706C6179206973206D613F
:1004F0006465207570206F66203136726F777320C7
:100500006F6620333220636F6C756D6E732E202002
:1005100045616368206F6674686520636861726115
:1005200063746572732069732036D73820706978D8
:10053000656C737768696368206769766573207591
:1005400073206120746F74616C20706978656C72BF
:1005500065736F6C7574696F6E206F662031393208
:10056000D73132382E0A0D0A5468652020206F7565
:100570007470757420202069732020696E74657210
:100580007275707464726976656E2C2020206C65BB
:100590006176696E672020736F6D6520204350552A
:1005A00074696D652020746F2074686520207573F0
:1005B0006572202070726F6772616D2E00747654C0
:1005C0006578742000557365722D646566696E6583
:1005D000642076696577706F727473616C6C6F7785
:1005E00020796F7520746F207265737472696374FB
:1005F0002074686520637572736F7220746F206158
:1006000020726567696F6E6F66207468652073631A
:100610007265656E2E0A0D0A5363726F6C6C696E9B
:100620006720616E6420636C656172696E676F70CC
:1006300065726174696F6E73206F6E6C792061668C
:100640006665637474686520646566696E656420B8
:1006500076696577706F72742E00546865206C69D6
:1006600062726172792070726F766964657320734B
:100670007570706F727420666F726120666C617342
:1006800068696E6720637572736F722E000A0D0AB7
:1006900054686520637572736F722063616E2062A7
:1006A00065207377697463686564206F66662E0AD7
:1006B0000D0A00596F752063616E206368616E6773
:1006C000652069747320617070656172616E636525
:1006D00020746F616E79206F6620746865206F7476
:1006E00068657220636861726163746572732E005D
:1006F0000A0D0A596F752063616E20616C736F205B
:100700006368616E67652074686520726174652036
:10071000617420776869636820697420666C61730E
:100720006865732E20536C6F772E2E2E007F7F7F8F
:1007300020746F2066617374210049662020796FF0
:100740007520206469736C696B6500626C61636B12
:1007500020206F6E2077686974650077686974651A
:1007600020206F6E20626C61636B002C796F7520A6
:100770002063616E2020696E7665727474686520EE
:1007800073637265656E20207769746861202073D9
:10079000696E676C652020666C61672E0000000042
:1007A00000000000007E81A581BD99817E7EFFDB77
:1007B000FFC3E7FF7E6CFEFEFE7C38100010387C25
:1007C000FE7C381000387C38FEFED6103810103809
:1007D0007CFE7C10380000183C3C180000FFFFE74E
:1007E000C3C3E7FFFF003C664242663C00FFC3997B
:1007F000BDBD99C3FF0F070F7DCCCCCC783C66669E
:10080000663C187E181C1E1B1B1A3878707F637F8D
:10081000636367E6C0995A3CE7E73C5A9980E0F881
:10082000FEF8E08000020E3EFE3E0E0200183C7E06
:1008300018187E3C1866666666660066007FDBDB1D
:100840007B1B1B1B001E317C663E8C780000000069
:10085000007E7E7E00183C7E187E3C18FF183C7E91
:100860001818181800181818187E3C180000180CD2
:10087000FE0C180000003060FE603000000000C078
:10088000C0C0FE0000002466FF6624000000183C83
:100890007EFFFF000000FFFF7E3C1800000000000C
:1008A000000000000018181818180018006C6C6C74
:1008B000000000000036367F367F3636000C3F6879
:1008C0003E0B7E180060660C1830660600386C6CB3
:1008D000386D663B0018181800000000000C183036
:1008E0003030180C0030180C0C0C18300000187E3A
:1008F0003C7E1800000018187E1818000000000048
:1009000000001818300000007E0000000000000009
:10091000000018180000060C18306000003C666EDD
:100920007E76663C001838181818187E003C66065B
:100930000C18307E003C66061C06663C000C1C3C15
:100940006C7E0C0C007E607C0606663C001C3060F1
:100950007C66663C007E060C18303030003C6666D3
:100960003C66663C003C66663E060C38000000189B
:10097000180018180000001818001818300C18304B
:100980006030180C0000007E007E00000030180C63
:10099000060C1830003C660C18180018003C666EF7
:1009A0006A6E603C003C66667E666666007C6666D3
:1009B0007C66667C003C66606060663C00786C66C5
:1009C00066666C78007E60607C60607E007E606041
:1009D0007C606060003C66606E66663C00666666D1
:1009E0007E666666007E18181818187E003E0C0C8D
:1009F0000C0C6C3800666C7870786C660060606017
:100A00006060607E0063777F6B6B63630066667611
:100A10007E6E6666003C66666666663C007C666660
:100A20007C606060003C6666666A6C36007C666668
:100A30007C6C6666003C66603C06663C007E18186E
:100A400018181818006666666666663C0066666674
:100A500066663C180063636B6B7F77630066663C79
:100A6000183C6666006666663C181818007E060C20
:100A70001830607E007C60606060607C00006030E8
:100A8000180C0600003E06060606063E00183C66E8
:100A9000420000000000000000000000FF30180CC1
:100AA000000000000000003C063E663E0060607CE6
:100AB0006666667C0000003C6660663C0006063E9A
:100AC0006666663E0000003C667E603C001C30307E
:100AD0007C3030300000003E66663E063C60607C44
:100AE00066666666001800381818183C001800384A
:100AF00018181818706060666C786C6600381818E2
:100B00001818183C000000367F6B6B630000007CF7
:100B1000666666660000003C6666663C0000007C17
:100B200066667C606000003E66663E060700006CFC
:100B3000766060600000003E603C067C0030307CE7
:100B40003030301C000000666666663E00000066BD
:100B500066663C18000000636B6B7F360000006621
:100B60003C183C660000006666663E063C00007E5F
:100B70000C18307E000C18187018180C0018181873
:100B800018181818003018180E18183000316B4655
:100B90000000000000FEFEFEFEFEFEFEFE00000065
:100BA00000000000000E0E0E0000000000E0E0E07B
:100BB0000000000000EEEEEE00000000000000006B
:100BC000000E0E0E000E0E0E000E0E0E00E0E0E007
:100BD000000E0E0E00EEEEEE000E0E0E00000000F7
:100BE00000E0E0E0000E0E0E00E0E0E000E0E0E0FB
:100BF00000E0E0E000EEEEEE00E0E0E000000000EB
:100C000000EEEEEE000E0E0E00EEEEEE00E0E0E086
:100C100000EEEEEE00EEEEEE00EEEEEE001800005E
:100C200018180000181818000018180000001818EC
:100C30000000181800000018180000181800000024
:100C40009999000000000000CCCC000000000000DA
:100C50006666000000000000333300000000000062
:100C600019190000180000000C0C001818000000F2
:100C70000606181800000000031B18000000000002
:100C80009898000018000000C0D81800000000006C
:100C900060601818000000003030001818180000BC
:100CA00019190000000000181B03000000001818AC
:100CB00006060000001818000C0C000000180000C8
:100CC0009898000000181800303000000000181834
:100CD0006060000000000018D8C000000007182065
:100CE000474F9C9898C03008C4E412131398984852
:100CF0004720180703131327C60E3CF8E0FF000037
:100D0000FFFF000000000000FF0000FFFF98989820
:100D1000989898989813131313131313131C3636BB
:100D20001C0000000018187E18187E000018240C03
:100D3000103C00000018240824180000000C183093
:100D40000000000000666666667C6060007FDBDB9A
:100D50007B1B1B1B000000181800000000FFFEFC9E
:100D6000F8F0E0C080FF7F3F1F0F07030180C0E065
:100D7000F0F8FCFEFF0103070F1F3F7FFFAA00AA48
:100D800000AA00AA00AA55AA55AA55AA55FFAAFF6B
:100D9000AAFFAAFFAAFFFFFFFFFFFFFFFF00382FF8
:100DA000FFFF7F0000001CF4FFFFFE0000181CFC8A
:100DB000BCFC3C3C3C3C3C3C3F3D3F38180000FC0C
:100DC000FFFFFC000000003FFFFF3F00003C3C3CF9
:100DD0003C3C3C181818183C3C3C3C3C3C0000FF98
:100DE000E3C7FF00003C3C2C2424343C3C00000FB3
:100DF0001F33333E3C0000F0F8CCCC7C3C3C3E330F
:100E0000331F0F00003C7CCCCCF8F0000000000049
:100E100000000000000000000000000000000000D2
:100E200000000000000F0F0F0F00000000F0F0F0B6
:100E3000F000000000FFFFFFFF00000000000000C6
:100E4000000F0F0F0F0F0F0F0F0F0F0F0FF0F0F01E
:100E5000F00F0F0F0FFFFFFFFF0F0F0F0F0000002E
:100E600000F0F0F0F00F0F0F0FF0F0F0F0F0F0F0F6
:100E7000F0F0F0F0F0FFFFFFFFF0F0F0F000000006
:100E800000FFFFFFFF0F0F0F0FFFFFFFFFF0F0F05E
:100E9000F0FFFFFFFFFFFFFFFFFFFFFFFF0000006E
:100EA00000000000000000001818000000007E4252
:100EB0004242427E00007E425A5A427E0000400476
:100EC0000020000200FF8585FFFFA1A1FF3C42A595
:100ED00081A599423C3C7EDBFFDBE77E3C3F7FE027
:100EE000C2D8D0CA430000808060106080FFC0A4D8
:100EF000908FA88888FF000000FF000000FF00001E
:100F000000FF000000FF032509F115111140301FFB
:100F100024524B64598080010202FE94248F8888F9
:100F200088888F8888FF00000000FF0000FF000015
:100F30000000FF0000F111111111F111114F645265
:100F4000497F7F5B75FF8080800000000088888F6C
:100F5000888888888F0000FF00000000FF0000FFE5
:100F600000000000FF1111F111111111F15B755B0F
:100F7000755B755A7F00000000C060A0E08888A8FB
:100F80008F90A4C0FF000000FF000000FF000000E1
:100F9000FF000000FF111115F1092503FF001124C6
:100FA0001FBECFEFD4E0DEBFCDBF11E0A0E0B1E0C7
:100FB000ECE1F9E202C005900D92A430B107D9F737
:100FC00013E0A4E0B1E001C01D92A832B107E1F73F
:100FD0000E94B2130C948C140C940000CF93DF93F6
:100FE00093E2899F802D11246D5F90E26902D00108
:100FF000112440E050E09FEFA45EBE4F1BC097302D
:1010000038F4E82FF0E0E859FF4F8F5F749101C08A
:1010100070E2603120F4FE01E20FF31F74832F5F52
:101020003F4F2530310559F76F5F9F5F405E5F4F3F
:10103000983031F0ED01C40FD51F20E030E0DFCF54
:10104000DF91CF9108958F929F92BF92CF92DF92BE
:10105000FF920F931F93CF93DF93809114018B7FA7
:10106000809314010E942E1285E3C82E9FE7F92E6B
:101070002CEBD22E0E94D60F00E010E0812C912C98
:10108000B12C6B2D8C2D0E943A12F401E957FE4FC2
:1010900096E087FD06C0880F915033969111F9CFE5
:1010A0002AC0DF01A354B109FC92DF01A254B109A7
:1010B000FC92DF01A154B109FC92DF019097DC9210
:1010C000DF019397FC92DF019297FC92DF019197E9
:1010D000FC92D082DF01A00FB11FA80DB91D9D01A8
:1010E00022503109E901D8829D0121503109E901DD
:1010F000D882DC92D0CFB394D0E48D0E911C0054F2
:10110000110987E0B812BDCF84EF91E00E94BC0EB8
:10111000CA94CFE2CC12AECF809114018460809348
:101120001401DF91CF911F910F91FF90DF90CF902D
:10113000BF909F908F900895CF93DF930E94F70CFC
:101140000E94D60F2FE04FE160E080E00E94D60DB4
:101150002EE04EE161E081E00E941E0D29E048E1B1
:1011600066E087E00E94021084E191E00E94141280
:101170000E9438100E94020DC6B1C095CF73D0E115
:101180000E942E122EE04EE161E081E00E941E0DD1
:1011900026B12095322F3F733C1781F120FF07C005
:1011A00080911B01882319F0815080931B0121FF3E
:1011B00007C080911B01833118F48F5F80931B015E
:1011C00022FF09C080911601909117010197909319
:1011D00017018093160123FF09C080911601909199
:1011E00017010196909317018093160125FF05C002
:1011F000809114018D2780931401C32F24FFC0CF49
:101200000E94E60C0E94D60FDF91CF910C94130D33
:101210000E94F70C0E94D60F2FE04FE160E080E0C3
:101220000E94D60D2EE04EE161E081E00E941E0D8D
:1012300029E048E166E087E00E9402108DE591E038
:101240000E9414120E9438100E94020D0E942E1259
:101250002EE04EE161E081E00E941E0D3499F6CF50
:101260000E94E60C0E94D60F0C94130D86EA91E0C2
:101270000C94141284E192E00C94141288E392E02E
:101280000C94141289E493E00C9414121F93CF93DE
:10129000DF930E94D60F0E943609C0E086B190E02D
:1012A000809590958F739927892BC1F7D6B1D095EA
:1012B000DF7310E00E942E1286B180958F738D1718
:1012C00011F0112311F080E001C0D82F82FF06C079
:1012D000CC2321F0C15090E010EF01C091E083FFDA
:1012E00005C0C33018F4CF5F90E010E184FF09C05F
:1012F000C33010F4CF5F07C0DF91CF911F910C94E2
:10130000D60F9111D7CF0E94E60C0E94D60F809184
:10131000160190911701805191409093170180938D
:101320001601C13051F030F0C23051F0C33009F035
:10133000B5CF09C00E943609B1CF0E943E09AECF99
:101340000E944209ABCF0E943A09A8CFCF93DF9306
:101350000E94D60F8BE194E00E94141280ED97E07A
:101360000E94BC0E84E494E00E94CD0E84E690E0DE
:101370000E94BC0E8CE594E00E94141284EF91E070
:101380000E94BC0E80E694E00E94CD0E84E690E0C0
:101390000E94BC0E8BE694E00E94141284EF91E050
:1013A0000E94BC0E8FE694E00E94CD0E88EE93E082
:1013B0000E94BC0E83E794E00E941412C9ECD0E0B6
:1013C00086E794E00E9414120E942E122197C1F722
:1013D00082E894E00E94141288EE93E00E94BC0E12
:1013E00089E994E00E94CD0E88EE93E0DF91CF91E1
:1013F0000C94BC0ECF93DF9380E191E090931701A2
:101400008093160180911401897F809314018FE7E6
:10141000809310010E94D60F80E28093100121E09A
:101420004EE16EE081E00E9402100E94D60F22E0A1
:101430004DE16DE082E00E94021086EA94E00E9495
:1014400014120BC00E942E12809116019091170168
:101450000297909317018093160180911601909145
:101460001701892B79F780E49FE10E94BC0E0E944E
:101470003810C0E2D0E00E940E0F88E290E00E9497
:10148000BC0E2197C1F780911401866080931401EE
:10149000DF91CF9108951F93CF93DF938091140133
:1014A000897F809314010E94D60FC9E48DEB95E0EB
:1014B0000E941412C150D1F784E70E94D61088EE22
:1014C00093E00E94BC0ECFE5D1E01FE719930E9484
:1014D0002E1281E0C937D807C9F7C8E9D1E01FE764
:1014E00018830E942E12A09682E0C83DD807C1F74B
:1014F000C9EDD2E01FE71A930E942E1282E0CF3B83
:10150000D807C9F7CFE9D2E01FE718830E942E124F
:10151000A09781E0CF35D807C1F784EF91E00E9412
:10152000BC0ECCE080E590E00E94BC0E23E04FE0D2
:101530006CE084E00E9402100E940E0F23E04BE159
:101540006CE080E10E9402100E94E10EC15051F750
:1015500024E04AE16BE085E00E9402100E94D60F71
:101560008091140186608093140184EF91E00E94C1
:10157000BC0E85EC95E00E94CD0E80EA9FE00E94B3
:10158000BC0E809114018B7F80931401C8E080E52C
:1015900090E00E94BC0E0E94790FC150C1F70E94DA
:1015A000381084EF91E00E94BC0EC0E180E590E02D
:1015B0000E94BC0E0E94440FC150C1F780911401DB
:1015C000846080931401DF91CF911F9108958F92D1
:1015D0009F92BF92CF92DF92FF920F931F93CF9370
:1015E000DF93809114018B7F809314010E942E124F
:1015F00085E3C82E9FE7F92E2CEBD22E0E94D60F42
:1016000000E010E0812C912CB12C6B2D8C2D0E94D0
:101610003A12F401E957FE4F96E087FD06C0880FA5
:10162000915033969111F9CF2AC0DF01A354B1092B
:10163000FC92DF01A254B109FC92DF01A154B1096F
:10164000FC92DF019097DC92DF019397FC92DF011F
:101650009297FC92DF019197FC92D082DF01A00F5C
:10166000B11FA80DB91D9D0122503109E901D88291
:101670009D0121503109E901D882DC92D0CFB39489
:10168000D0E48D0E911C0054110987E0B812BDCF33
:1016900084EF91E00E94BC0ECA94CFE2CC12AECF90
:1016A00080911401846080931401DF91CF911F9188
:1016B0000F91FF90DF90CF90BF909F908F900895F3
:1016C0007F928F929F92AF92BF92CF92DF92FF92C2
:1016D0000F931F93CF93DF930E94D60F8091140135
:1016E0008B7F809314013CE1A32E31E0B32ECCE339
:1016F000D1E04CEFC42E42E0D42E0CE113E056E0D2
:10170000752E63E0862E74E0972EE5E0FE2E0E9493
:101710002E12F50171925F018992F60192926F018A
:10172000F801F2928F01F1E0CC35DF0781F780916B
:10173000140184608093140163E080E00E94B60F7E
:101740008AE596E00E94CD0E80ED97E00E94BC0EE7
:10175000809114018B7F809314018DE896E00E94A4
:10176000CD0E80ED97E00E94BC0E80911401846044
:10177000809314018DE08093190183EB96E00E9421
:10178000CD0E80ED97E00E94BC0E8FE5809319018D
:1017900080EF96E00E94CD0E82E380931A010E94B2
:1017A000AC0F80EA9FE00E94BC0E8DE297E00E94A1
:1017B000CD0E84E080931A010E94AC0F80EA9FE076
:1017C0000E94BC0E80E180931A01809114018B7FEE
:1017D00080931401C0E088E290E00E94BC0E7C2F50
:1017E00080E090E0843029F0FC01E050FF4FA081C0
:1017F00001C0A0E27033D8F0019671508530910598
:1018000089F71EC0472F461B403278F467FD0DC094
:1018100060315CF450E26502F0011124E45EFE4F99
:10182000E40FF11D47FDFA95A0836F5F03C060E0F0
:10183000272F30E0462F50E0241735071CF7DCCF68
:10184000CF5FC63341F68091140184608093140108
:10185000DF91CF911F910F91FF90DF90CF90BF90BC
:10186000AF909F908F907F9008950895CF92DF92D0
:10187000FF920F931F93CF93DF9325E047E16FE033
:1018800088E00E9402108AE397E00E94CD0E8091CA
:10189000140184FF03C08BE497E002C08BE597E05E
:1018A0000E94CD0E8BE697E00E94CD0E88EE93E06D
:1018B0000E94BC0E809114018B7F809314010E94C2
:1018C0003810C1E0D0E0BEE1DB2E1CEBC12E2EC0F3
:1018D00088E290E00E94BC0EFF2019F04D2D411BC4
:1018E00001C0412F242F30E02F5F3F4F0FC0A5E0F4
:1018F000EE0FFF1FAA95E1F7E80FF91FC0825F5FA7
:10190000E52FF0E0CE17DF0794F74F5F842F90E0CC
:101910002817390724F0502F845E9E4FF1CF1E5FA9
:101920001032B1F62296C131D10539F00C2F015099
:1019300010E0F2E0FF2EF022CBCF88E290E00E9490
:10194000BC0E88E290E00E94BC0E88E290E00E940B
:10195000BC0E84E690E00E94BC0E8091140190E1E0
:101960008927809314010E94D60F84EF91E00E9492
:10197000BC0E80911401846080931401DF91CF919B
:101980001F910F91FF90DF90CF9008950E94481013
:10199000809114018E7F8093140180ED97E00E9466
:1019A000BC0E809114018160809314010E94A609ED
:1019B0000E94E70A0E94FA090E944B0A0E94600BEB
:1019C0000E94360C0E94D60F0C943810CF93C4E4BA
:1019D0000E942E1280911601909117010496909307
:1019E000170180931601C15099F7CF910895809106
:1019F000160190911701805F9E4F9093170180937D
:101A000016010895CF93C4E40E942E12809116010E
:101A10009091170104979093170180931601C1507C
:101A200099F7CF91089580911601909117018051F7
:101A30009140909317018093160108952F923F9241
:101A40004F925F926F927F928F929F92AF92BF92CE
:101A5000CF92DF92FF920F931F93CF93DF9300D02B
:101A600000D000D0CDB7DEB76A83F22E20911201EC
:101A70003091130137FF02C02D5F3F4FB9017595BB
:101A8000679575956795637077277E836D83698306
:101A9000242F30E0082F10E04901801A910A240118
:101AA00071E0471A51088A81682E712C530145E074
:101AB000AA0CBB1C4A95E1F718019FEF291A390AB5
:101AC0006D817E816C567F4FC501820D931DA201F1
:101AD000845E9E4F2B833C830E947C14A0E2FA9E7E
:101AE000600111246D817E8171956195710963702A
:101AF00077276C567F4FC601820D931DA201845E2D
:101B00009E4F0E947C14F301319655E0EE0FFF1FAB
:101B10005A95E1F7E00FF11FE45EFE4F9A819F5F57
:101B20008981819583708057498140572B813C8101
:101B300007C08083DF01A80DB91D4C939F5FB0964D
:101B40009F15B8F3045E1E4FF801EA0DFB1D898155
:101B500088568083245E3E4FF901EA0DFB1D898182
:101B600084568083F801EC0DFD1D898180568083A9
:101B7000F901EC0DFD1D89818C55808326960FB6E9
:101B8000F894DEBF0FBECDBFDF91CF911F910F91B3
:101B9000FF90DF90CF90BF90AF909F908F907F90FD
:101BA0006F905F904F903F902F9008952F923F92AB
:101BB0004F925F926F927F928F929F92AF92BF925D
:101BC000CF92DF92FF920F931F93CF93DF9300D0BA
:101BD0001F92CDB7DEB7362FF22E242E312C482F90
:101BE00050E05B834A835101A41AB50A350151E0E4
:101BF000651A7108862E912C640165E0CC0CDD1C01
:101C00006A95E1F74A805B808FEF481A580AC6014F
:101C1000840D951DA3016CEA70E0845E9E4F3983AC
:101C20000E947C1490E2F99E80011124C801840D69
:101C3000951DA3016DEA70E0845E9E4F0E947C14A6
:101C4000F401319675E0EE0FFF1F7A95E1F7AA8156
:101C5000BB81EA0FFB1FE45EFE4F3981632F6F5F8C
:101C60008EEA9FEA07C08083DF01AA0DBB1D9C930B
:101C70006F5FB0966F15B8F34A815B81445E5E4F2B
:101C8000FA01EC0DFD1D88EA80839101245E3E4F30
:101C9000F901EC0DFD1D89EA8083400F511F8AEA8E
:101CA000FA018083F901E00FF11F8BEA80830F9026
:101CB0000F900F90DF91CF911F910F91FF90DF90C8
:101CC000CF90BF90AF909F908F907F906F905F90DC
:101CD0004F903F902F9008957F928F929F92AF9256
:101CE000BF92CF92DF92FF920F931F93CF93DF9318
:101CF000762EF22E042F10E0C82ED12C0C191D09BF
:101D000058012FEFA21AB20A80901001992487FC83
:101D10009094E60180E2689FC00DD11D1124C45E3D
:101D2000DE4FA501B401CE010E947C14C60120E261
:101D3000F29E800D911D1124A501B401845E9E4F79
:101D40000E947C14672D09C0809110018883FE01D8
:101D5000E00FF11F80836F5FA096F616A8F7DF9162
:101D6000CF911F910F91FF90DF90CF90BF90AF90D8
:101D70009F908F907F900895CF93DF9364E170E000
:101D80000E944214EB0103C00E942E1221971C16E0
:101D90001D06D4F3DF91CF910895CF93DF93EC012B
:101DA00008C00E94D6100E942E120E942E120E947D
:101DB0002E12FE01219684918111F3CFDF91CF91F4
:101DC0000895FF920F931F93CF93DF93F0901C031E
:101DD0008091180190E0EC0120E2F29EC00DD11D2F
:101DE0001124C45EDE4F8C010FC040910E0150E003
:101DF000401B510BBE01CE0101960E946A148091D6
:101E000010018883F394A096809111018F1568F7D3
:101E1000DF91CF911F910F91FF900895CF92DF92A4
:101E2000FF920F931F93CF93DF93F0901C03809149
:101E3000180190E0EC0120E2F29EC00DD11D1124AA
:101E4000C45EDE4F6C0114C000910E0110E00C194D
:101E50001D09BE016F5F7F4FA801CE010E946A1469
:101E6000FE01E00FF11F809110018083F394A09692
:101E7000809111018F1540F7DF91CF911F910F9144
:101E8000FF90DF90CF9008951F93CF93DF93209121
:101E900011018091180190E030E2239F800D911D87
:101EA0001124845E9E4F10911C030CC0EC01A0977E
:101EB00050E0421B51094F5F5F4FBE010E946A1400
:101EC0001F5FCE01309111012091180140910E0148
:101ED000131760F350E0421B51094F5F5F4F609151
:101EE0001001772767FD7095DF91CF911F910C94BA
:101EF0007C141F93CF93DF9310911C0380911801E2
:101F000090E020E2129F800D911D1124845E9E4F6F
:101F10000CC0EC01A09650E0421B51094F5F5F4F8F
:101F2000BE010E946A141F5FCE0130911101209101
:101F3000180140910E01131760F350E0421B510944
:101F40004F5F5F4F60911001772767FD7095DF91BC
:101F5000CF911F910C947C1480911A0180930D01F4
:101F60008091140188608093140108959091180164
:101F7000891730F090910E01981710F080930F019F
:101F800080911C03681730F080911101861710F0C2
:101F9000609315010C94AC0F8091180180930F0190
:101FA00080911C03809315010C94AC0F1F93CF9369
:101FB000DF9310911C03C0911801D0E080E2189FBC
:101FC000C00DD11D1124C45EDE4F13C040910E011F
:101FD00050E080911801481B51094F5F5F4F60919D
:101FE0001001772767FD7095CE010E947C141F5F5A
:101FF000A09680911101811748F7DF91CF911F9131
:102000000C94CC0F80320CF08FE187FD80E06031C2
:102010000CF06FE067FD60E040320CF04FE147FDEF
:1020200040E020310CF02FE027FD20E048171CF4A1
:10203000982F842F492F62171CF4962F622F292F77
:10204000809318016093110140930E0120931C03AB
:1020500090910F01981744F0491734F080911501C1
:10206000821714F0681714F40E94CC0F0C94AC0F74
:102070001092180110921C0310920F01109215017A
:102080008FE180930E018FE0809311010C94AC0FCF
:102090000E944512579A209AE1E8F0E08081816021
:1020A0008083AFE6B0E08C9182608C938081886001
:1020B000808387E08093140180E2809310018FE594
:1020C0008093190180E180931A010E9438108FE0FB
:1020D00080931B01109217011092160178940895B5
:1020E00020911501215020931501332727FD3095AC
:1020F00080911C0390E0281739076CF4809114013B
:1021000081FF05C00E94440F80911C0302C0809192
:102110001101809315010C94AC0F20910F012150F7
:1021200020930F01332727FD30958091180190E00F
:102130002817390734F480910E0180930F010E9413
:1021400070100C94AC0F209115012F5F2093150196
:10215000332727FD30958091110190E08217930776
:102160006CF48091140181FF05C00E94790F809169
:10217000110102C080911C03809315010C94AC0FD7
:1021800020910F012F5F20930F01332727FD3095FA
:1021900080910E0190E08217930734F4809118012A
:1021A00080930F010E94A3100C94AC0F0F931F9308
:1021B000CF93DF9390911D03992309F496C091501A
:1021C00090931D03E92FF0E0E15EFC4F80839111B5
:1021D00026C180911E038B3109F45EC020F4873143
:1021E00009F01DC107C08C3109F467C08F3109F0B7
:1021F00016C171C080912703813021F0873009F02A
:102200000EC111C09091260380911401992349F0C9
:10221000846080931401DF91CF911F910F910C94F2
:10222000AC0F8B7F8FC00091180110911101D091DC
:102230001C03C0910E0180912603882351F0109257
:102240001C03109218018FE180930E018FE08093A0
:10225000110180912503813049F028F0823049F046
:10226000833061F409C00E94E10E08C00E940E0F85
:1022700005C00E94440F02C00E94790F809126037E
:10228000882309F4CCC00093180110931101D09356
:102290001C03C0930E01C3C0E091150180E2E80267
:1022A000F001112480910F01E45EFE4FE80FF11D53
:1022B00087FDFA9580911F03ABC020911F034091C9
:1022C00020036091210380912203DF91CF911F9120
:1022D0000F910C94021060911F0380912003DF91F5
:1022E000CF911F910F910C94B60F80320CF06CC0FF
:1022F0008C3009F440C06CF4883059F134F48430E7
:10230000F1F0853009F08BC020C08A3041F16CF5C6
:1023100080C08B3109F444C044F48731B9F18A316B
:10232000C9F18D3009F07BC02CC08E3109F440C05A
:102330008F3109F443C08C3109F071C035C08091F0
:1023400014018260809314016AC0809114018D7F12
:10235000F9CFDF91CF911F910F910C948D10DF91E8
:10236000CF911F910F910C94A310DF91CF911F91EA
:102370000F910C947010DF91CF911F910F910C94DD
:10238000D60F8091180180930F0149C080931E03DE
:1023900089E017C0DF91CF911F910F910C943810F5
:1023A00080931E0381E00DC080931E0384E009C06A
:1023B000DF91CF911F910F910C94CC0F80931E034E
:1023C00082E080931D032BC08F37A1F40E948D10F3
:1023D000E091150190E2E902F001112480910F01D2
:1023E000E45EFE4FE80FF11D87FDFA958091100124
:1023F000808315C0E091150190E2E902F0011124FB
:1024000090910F01E45EFE4FE90FF11D97FDFA95E3
:102410008083DF91CF911F910F910C94C010DF91B9
:10242000CF911F910F910895CF93DF93EC0102C0DC
:102430000E94D610FE01219684918111F9CFDF917F
:10244000CF910895CF93DF93EC0102C00E94D61084
:1024500089918111FBCFDF91CF9108958091120175
:10246000909113012091120130911301281739071F
:10247000C9F30895E62FF0E098E08902E00DF11D20
:102480001124E356F84F849108954F9346E7409303
:10249000040142E14093050145E0409306014F915C
:1024A0000895EFB6EF93FF93CF93DF93E1E0E093CE
:1024B0008100E0918400E0FF00C0E1FFE491E09141
:1024C0000401F09105010994E0930401F0930501E2
:1024D000D0938900C0938800E9E0E0938100B19A2D
:1024E000DF91CF91FF91EF91EFBE18952898CFE241
:1024F000D2E0EDE7F2E10C946412289AC091060153
:10250000CA9541F4CFEFC0930701C5E0E2E9F2E1DB
:102510000C948C12E6E7F2E1C0930601CFE4D0E020
:102520000C94641228985F98CFE4D0E0EAE9F2E1D5
:102530000C946412289AC0910601CA9561F5C09165
:102540000701C39571F0E0911201F09113013196EA
:10255000E0931201F0931301C5E0E6E7F2E10C9479
:10256000CD120E94D312CFEDDFEFE0911601F09172
:102570001701CE1BDF0BE0911401E0FFD0E8C09300
:102580000B01D0930C01DEEFD0930701C0EDE1E029
:10259000F3E10C94CD12E2E9F2E1C0930601CFE23F
:1025A000D2E00C9464120F921F9200901501C0E2C9
:1025B0000C9EC0910F01DD270C0E1D1ECCE1D1E059
:1025C0000C0E1D1E0092080110920901E001C88145
:1025D000D0911401D2FF04C0D3FF02C0C0911901F1
:1025E000C0930A01C0910D01CA9531F4C8E0DC27FF
:1025F000D0931401C0911A01C0930D011F900F9048
:10260000089528985F98C0910B01D0910C012196F4
:10261000C0930B01D0930C01CFE4D0E0E2E1F3E1F1
:102620000C946412289AC0910601D091070121965A
:10263000C0930601D093070151F4E2E9F2E1C6E04C
:10264000C09306010C942C1300C000C000C0E1E050
:10265000F3E100C000C00000CFEAD4E0E093040141
:10266000F0930501D0938900C09388000F921F92C8
:102670001F932F930F93FF923F93AF93BF930091BC
:102680001B0103950A95F1F7F09014013327F4FC30
:102690003FEF3BB900910C01002B11F00C94A713F4
:1026A000C0910801D091090108800F9200900A01A1
:1026B00008821DE927E0A0910B01A695A770BB2712
:1026C0001A0F2B1FA0910B01A295AF70B0E2BA9F19
:1026D000ACE1B1E0A00DB11DE8E00D900E9E010E41
:1026E000121EF001F490F326FBB80000FF1C00C09E
:1026F000FBB8E8E0FF1C0D90FBB80E9EFF1C010E1E
:10270000FBB80000121EF001FF1CFBB80FE1000037
:102710000000FF1CFBB8F490F326FBB8E8E0FF1CB8
:102720000D90FBB80E9EFF1C0000FBB8010E121EA0
:10273000F001FF1CFBB800C0FF1C0A95FBB841F775
:1027400000000000FF1CFBB80F9008823BB9BF914E
:10275000AF913F91FF900F912F911F911F900F907C
:102760000C946C1288B18F6388B90E94481081E183
:10277000809314010E9423080E94D60FC0E026B166
:1027800030E0209530952F733327232BC1F724E0B9
:1027900043E16FE08DE00E9402100E94D60F84EFAB
:1027A00090E00E9414120E9438102CE045E162E093
:1027B0008BE00E94D60D16B110951F73D0E00E94D9
:1027C0002E126C2F660F262F2B5F6D5F44E18CE07D
:1027D0000E946C0E86B180958F73811711F0DD23F6
:1027E00011F080E001C0182F82FF02C0CD5FD0EF52
:1027F00083FF02C0CF5FD0E1C370082F00716C2F40
:10280000660F262F2B5F6D5F44E18CE00E941E0D4A
:102810006D2F8C2F0E94EE076D2F1D162CF4D150BA
:102820008C2F8D5F605108C0DD2329F0DF5F8C2F76
:102830008F5F605F01C08C2F83700E94EE070023C2
:1028400009F4BDCF0E94E60C0E94D60F209116011C
:102850003091170120513140309317012093160118
:10286000C23051F0C33059F0C13019F00E9446090E
:1028700085CF0E94C60C83CF0E949C0880CF0E9407
:1028800008097DCF97FB072E16F4009407D077FD3B
:1028900009D00E94561407FC05D03EF4909581950E
:1028A0009F4F0895709561957F4F0895AA1BBB1B9C
:1028B00051E107C0AA1FBB1FA617B70710F0A61B40
:1028C000B70B881F991F5A95A9F780959095BC0161
:1028D000CD0108956817790768F4FB01DC01E40F66
:1028E000F51FA40FB51F02C002900E924150504038
:1028F000D8F708950C948314DC0101C06D93415006
:102900005040E0F70895FB01DC0102C001900D92F8
:0C29100041505040D8F70895F894FFCFD4
:00000001FF
